:020000040000FA
:1000000000020010950100009D0100009F0100000A
:10001000A1010000A3010000A501000000000000F4
:10002000000000000000000000000000A701000028
:10003000A901000000000000AB0100004D0300001A
:10004000AF010000AF010000AF010000AF010000F0
:10005000AF010000AF010000AF010000AF010000E0
:10006000AF010000AF010000AF010000AF010000D0
:10007000AF010000AF010000AF010000AF010000C0
:10008000AF010000AF010000AF010000AF010000B0
:10009000AF010000AF010000AF010000AF010000A0
:1000A000AF010000AF010000AF010000AF01000090
:1000B000AF010000AF010000AF010000AF01000080
:1000C000AF010000AF010000AF01000000F002F836
:1000D00000F050F814A696E8000CB244B344DA4598
:1000E00001D100F047F8BAE80F000FA696E83000FB
:1000F000A5EB040504EB0607AAEB0704A7F101072B
:100100004FEA15154FEA3414A4F10104AC4201D3AF
:1001100000F030F813F0010F18BFFB1A43F0010391
:1001200000F001F8DBE71847DC0900000C0A0000CA
:10013000103A24BF78C878C1FAD8520724BF30C813
:1001400030C144BF04680C60704700007047000075
:100150000023002400250026103A28BF78C1FBD8D0
:10016000520728BF30C148BF0B6070471FB51FBD85
:1001700010B510BD00F0C4F81146FFF7F7FF00F00E
:1001800033FB00F0A0F803B4FFF7F2FF03BC00F06C
:10019000A7F800000948804709480047FEE7FEE746
:1001A000FEE7FEE7FEE7FEE7FEE7FEE7FEE7FEE727
:1001B00004480549034A054B704700004D050000FF
:1001C000CD00000070C007200002001000000010E9
:1001D00053EA020C00F069802DE9F04B4FF0000665
:1001E000002B1FBFB3FA83F503FA05F424FA05F6D2
:1001F0005E4012BF1643B2FA82F502FA05F4C5F169
:1002000020051EBF22FA05FC44EA0C04203556EAFC
:10021000044C4FEA144418BF641C4FF000084FF020
:100220000009904271EB030C39D3002919BFB1FAD0
:1002300081F701FA07F6B0FA80F700FA07F6C7F17E
:1002400020071EBF20FA07FC46EA0C062037B6FB43
:10025000F4FCA7EB0507103F07F01F0BCBF12006BE
:100260002CFA06F60CFA0BFB44BFB3460026202FEF
:10027000A4BF5E464FF0000B5BEA060C08BF4FF0D0
:10028000010B19EB0B0948EB0608ABFB027C06FBE4
:1002900002CC0BFB03CCC01B71EB0C01C1E70B467E
:1002A000024641464846BDE8F08B13B5084318BFE7
:1002B0004FF0FF300146AFF30080BDE81C407047AF
:1002C00070477047704710B50446AFF30080204672
:1002D000BDE81040FFF757BF0048704708C007202F
:1002E00001491820ABBEFEE726000200704700005F
:1002F0004CF26800C2F2070000687047FFFFFFFF82
:100300007546FFF7E9FFAE4605006946534620F003
:100310000700854618B020B5FFF74AFFBDE820402A
:100320004FF000064FF000074FF000084FF0000BB1
:10033000AC46ACE8C009ACE8C009ACE8C009ACE820
:10034000C00921F007018D467047000080B54CF2CE
:100350006801C2F207010868013008604CF26C00C5
:10036000C2F20700006838B1FFE74CF26C00C2F23D
:10037000070000688047FFE780BD00004EF21401CF
:10038000CEF2000148F29F60C0F2010008607047A1
:100390004EF21001CEF20001072008607047000005
:1003A00080B586B04CF28800C4F20F000068C0F33C
:1003B0000160032840F08080FFE74CF20C10C4F28B
:1003C0000F00006800F0030001460591032872D871
:1003D0000599DFE801F002284E024CF28802C4F2CF
:1003E0000F0210686FF3DF30013041F20021C0F2DC
:1003F0007A01A0FB01011268C2F307420132002317
:100400000493FFF7E5FE049B4CF20412C4F20F02C2
:100410001268D2B20132FFF7DBFE4CF20001C2F2E9
:100420000701086047E04CF28802C4F20F0210682E
:100430006FF3DF30013043F20061C0F26E11A0FBB8
:1004400001011268C2F30742013200230393FFF750
:10045000BFFE039B4CF20412C4F20F021268D2B228
:100460000132FFF7B5FE4CF20001C2F2070108604D
:1004700021E04CF28801C4F20F0108686FF3DF300D
:10048000013000040968C1F307414A1C00230293AC
:100490001946FFF79DFE029B4CF20412C4F20F02B4
:1004A0001268D2B20132FFF793FE4CF20001C2F2A1
:1004B00007010860FFE747E04CF20C10C4F20F00A0
:1004C000006800F003000146019103283BD8019920
:1004D000DFE801F0021528024CF20410C4F20F000C
:1004E0000068C0B2411C40F60010C0F23D00B0FBF5
:1004F000F1F04CF20001C2F20701086023E04CF277
:100500000410C4F20F000068C0B2411C41F6003074
:10051000C0F2B700B0FBF1F04CF20001C2F20701EB
:10052000086010E04CF20410C4F20F000068C0B282
:10053000411C4FF40040B0FBF1F04CF20001C2F25C
:1005400007010860FFE7FFE706B080BD4CF2A0108E
:10055000C4F20F00202101600068800600280CD53D
:10056000FFE7FFE74CF2A010C4F20F00006840065E
:10057000002801D4FFE7F5E7FFE74CF20411C4F2CD
:100580000F01032008604CF2A811C4F20F010020F3
:1005900008604CF2AC11C4F20F0108604CF20C1070
:1005A000C4F20F00012303604CF28401C4F20F0176
:1005B0006320C0F2050008604CF28C01C4F20F0108
:1005C000AA220A60552008604CF2800CC4F20F0C7D
:1005D000CCF800300A600860FFE74CF28800C4F2F3
:1005E0000F0000684001002801D4FFE7F5E74CF256
:1005F0008001C4F20F01032008604CF28C01C4F2A8
:100600000F01AA20086055200860FFE74CF288001F
:10061000C4F20F00006800F04070B0F1407F01D0DC
:10062000FFE7F3E74CF2A401C4F20F0123200860B6
:100630004CF2AC01C4F20F01AA220A6055200860F6
:100640004CF2A00CC4F20F0C0123CCF800300A606D
:100650000860FFE74CF2A800C4F20F0000684005F4
:10066000002801D4FFE7F5E74CF2A001C4F20F0126
:10067000032008604CF2AC01C4F20F01AA2008600C
:1006800055200860FFE74CF2A800C4F20F00006894
:1006900000F44070B0F5407F01D0FFE7F3E74CF283
:1006A000C401C4F20F0148F2DE70C0F228400860B5
:1006B0004CF2C811C4F20F01002008604CF2000196
:1006C000C4F20F010868042262F30F30086070471B
:1006D00080B584B003900020ADF80A00FFE7BDF8B4
:1006E0000A0003990979884268DAFFE703980168EC
:1006F000BDF80A0000EB40028818895AADF80610D0
:1007000080788DF8080000208DF80500FFE79DF83F
:100710000500072813DCFFE79DF807000006002806
:1007200003D5FFE700F0C0F802E000F02BF9FFE787
:10073000FFE79DF8050001308DF80500E7E7002090
:100740008DF80400FFE79DF80400072813DCFFE79D
:100750009DF806000006002803D5FFE700F0A4F886
:1007600002E000F00FF9FFE7FFE79DF80400013019
:100770008DF80400E7E700208DF80300FFE79DF8FF
:100780000300072813DCFFE79DF808000006002897
:1007900003D5FFE700F088F802E000F0F3F8FFE788
:1007A000FFE79DF8030001308DF80300E7E7FFE75E
:1007B000BDF80A000130ADF80A0090E70020ADF85E
:1007C0000000FFE7BDF80000B0F5167F09DAFFE78B
:1007D00000BF00BFFFE7BDF800000130ADF800002A
:1007E000F0E704B080BD000080B58EB0002001901D
:1007F0000D90FFF7ABFE00F02FF94CF2C401C4F2EC
:100800000F01086840F4004008604CF26001C2F239
:100810000901086840F080600860FFF7AFFDFFF74E
:10082000B7FDFFF765FD014601980B900A9109900D
:100830000890079006900590049004A80290082064
:100840008DF80C00FF208DF812008DF814008DF843
:1008500016008DF81B008DF81D008DF820008DF816
:100860002200FFE7FFF744FD0A990B9A411A4FF067
:1008700000009041B1F57A7170F1000009D3FFE7F3
:1008800002A8FFF725FFFFF733FD00210B910A9027
:10089000FFE7E7E74CF28C01C4F20F01AA200860E1
:1008A00055200860704700004CF27801C2F209013F
:1008B000086840F08060086000BF00BF00BF00BF54
:1008C00000BF00BF00BF00BF00BF00BF00BF00BF30
:1008D00000BF00BF00BF00BF00BF00BF00BF00BF20
:1008E00000BF00BF00BF00BF00BF00BF00BF00BF10
:1008F00000BF00BF00BF00BF00BF00BF00BF00BF00
:1009000000BF00BF00BF00BF00BF00BF00BF00BFEF
:1009100000BF00BF00BF00BF00BF00BF00BF00BFDF
:1009200000BF00BF00BF00BF00BF00BF00BF00BFCF
:1009300000BF00BF00BF00BF00BF00BF00BF00BFBF
:100940004CF27C01C2F20901086840F08060086046
:1009500000BF00BF00BF00BF00BF00BF00BF00BF9F
:1009600000BF00BF00BF00BF00BF00BF00BF00BF8F
:1009700000BF00BF00BF00BF00BF00BF00BF00BF7F
:10098000704700004CF27801C2F20901086840F09B
:100990008060086000BF00BF00BF00BF00BF00BF95
:1009A00000BF00BF00BF00BF00BF00BF00BF00BF4F
:1009B00000BF00BF00BF00BF00BF00BF00BF00BF3F
:1009C00000BF00BF00BF00BF00BF00BF00BF00BF2F
:1009D00000BF00BF4CF27C01C2F20901086840F080
:1009E0008060086000BF00BF00BF00BF00BF00BF45
:1009F00000BF00BF00BF00BF00BF00BF00BF00BFFF
:100A000000BF00BF00BF00BF00BF00BF00BF00BFEE
:100A100000BF00BF00BF00BF00BF00BF00BF00BFDE
:100A200000BF00BF00BF00BF00BF00BF00BF00BFCE
:100A300000BF00BF00BF00BF00BF00BF00BF00BFBE
:100A400000BF00BF00BF00BF00BF00BF00BF00BFAE
:100A500000BF00BF7047000080B584B00220ADF831
:100A60000E001920ADF80C000320ADF80A004CF27E
:100A70008001C4F20F010091012001900860FFF78E
:100A800009FF009900200860FFF704FF01984CF26D
:100A90000C11C4F20F010860BDF80E100020CFF653
:100AA000FF7000EB0140BDF80C10013908434CF217
:100AB0008401C4F20F010860FFF7ECFE0099019871
:100AC0000860FFF7E7FEBDF80A0001384CF2041198
:100AD000C4F20F010860FFE74CF28800C4F20F0077
:100AE00000684001002801D4FFE7F5E74CF28001DF
:100AF000C4F20F0103200860FFF7CCFEFFF750FCA3
:100B000004B080BD380B000000C0072008000000C2
:100B100030010000340B0000000000100002000053
:100B200050010000400B000008C0072068000000D2
:100B3000500100000000000000E1F5050000000089
:04000005000000CD2A
:00000001FF
